{"contracts/ReputationContract.sol":{"ReputationContract":{"abi":[{"inputs":[],"stateMutability":"nonpayable","type":"constructor"},{"inputs":[{"internalType":"address","name":"owner","type":"address"}],"name":"OwnableInvalidOwner","type":"error"},{"inputs":[{"internalType":"address","name":"account","type":"address"}],"name":"OwnableUnauthorizedAccount","type":"error"},{"anonymous":false,"inputs":[{"indexed":true,"internalType":"address","name":"previousOwner","type":"address"},{"indexed":true,"internalType":"address","name":"newOwner","type":"address"}],"name":"OwnershipTransferred","type":"event"},{"anonymous":false,"inputs":[{"indexed":true,"internalType":"address","name":"creator","type":"address"},{"indexed":true,"internalType":"address","name":"supporter","type":"address"},{"indexed":false,"internalType":"uint8","name":"rating","type":"uint8"},{"indexed":false,"internalType":"string","name":"comment","type":"string"}],"name":"RatingSubmitted","type":"event"},{"anonymous":false,"inputs":[{"indexed":true,"internalType":"address","name":"creator","type":"address"},{"indexed":false,"internalType":"uint256","name":"newScore","type":"uint256"},{"indexed":false,"internalType":"uint256","name":"completedRequests","type":"uint256"},{"indexed":false,"internalType":"uint256","name":"disputedRequests","type":"uint256"}],"name":"ReputationUpdated","type":"event"},{"anonymous":false,"inputs":[{"indexed":true,"internalType":"address","name":"creator","type":"address"},{"indexed":false,"internalType":"string","name":"requestId","type":"string"},{"indexed":false,"internalType":"bool","name":"completed","type":"bool"}],"name":"RequestStatusUpdated","type":"event"},{"inputs":[],"name":"MAX_RATING","outputs":[{"internalType":"uint8","name":"","type":"uint8"}],"stateMutability":"view","type":"function"},{"inputs":[],"name":"MAX_SCORE","outputs":[{"internalType":"uint256","name":"","type":"uint256"}],"stateMutability":"view","type":"function"},{"inputs":[],"name":"MIN_RATING","outputs":[{"internalType":"uint8","name":"","type":"uint8"}],"stateMutability":"view","type":"function"},{"inputs":[],"name":"MIN_SCORE","outputs":[{"internalType":"uint256","name":"","type":"uint256"}],"stateMutability":"view","type":"function"},{"inputs":[],"name":"SCORE_DECREMENT","outputs":[{"internalType":"uint256","name":"","type":"uint256"}],"stateMutability":"view","type":"function"},{"inputs":[],"name":"SCORE_INCREMENT","outputs":[{"internalType":"uint256","name":"","type":"uint256"}],"stateMutability":"view","type":"function"},{"inputs":[{"internalType":"address","name":"creator","type":"address"}],"name":"creatorExists","outputs":[{"internalType":"bool","name":"","type":"bool"}],"stateMutability":"view","type":"function"},{"inputs":[{"internalType":"address","name":"","type":"address"}],"name":"creatorReputations","outputs":[{"internalType":"uint256","name":"score","type":"uint256"},{"internalType":"uint256","name":"totalRatings","type":"uint256"},{"internalType":"uint256","name":"completedRequests","type":"uint256"},{"internalType":"uint256","name":"disputedRequests","type":"uint256"},{"internalType":"uint256","name":"totalRatingSum","type":"uint256"},{"internalType":"uint256","name":"ratingCount","type":"uint256"},{"internalType":"bool","name":"exists","type":"bool"}],"stateMutability":"view","type":"function"},{"inputs":[{"internalType":"address","name":"creator","type":"address"}],"name":"emergencyResetReputation","outputs":[],"stateMutability":"nonpayable","type":"function"},{"inputs":[{"internalType":"address","name":"creator","type":"address"}],"name":"getAverageRating","outputs":[{"internalType":"uint256","name":"","type":"uint256"}],"stateMutability":"view","type":"function"},{"inputs":[{"internalType":"address","name":"creator","type":"address"}],"name":"getCompletionRate","outputs":[{"internalType":"uint256","name":"","type":"uint256"}],"stateMutability":"view","type":"function"},{"inputs":[{"internalType":"address","name":"creator","type":"address"},{"internalType":"uint256","name":"ratingId","type":"uint256"}],"name":"getRating","outputs":[{"internalType":"address","name":"supporter","type":"address"},{"internalType":"uint8","name":"rating","type":"uint8"},{"internalType":"string","name":"comment","type":"string"},{"internalType":"uint256","name":"timestamp","type":"uint256"}],"stateMutability":"view","type":"function"},{"inputs":[{"internalType":"address","name":"creator","type":"address"}],"name":"getRatingCount","outputs":[{"internalType":"uint256","name":"","type":"uint256"}],"stateMutability":"view","type":"function"},{"inputs":[{"internalType":"address","name":"creator","type":"address"}],"name":"getReputation","outputs":[{"internalType":"uint256","name":"score","type":"uint256"},{"internalType":"uint256","name":"totalRatings","type":"uint256"},{"internalType":"uint256","name":"completedRequests","type":"uint256"},{"internalType":"uint256","name":"disputedRequests","type":"uint256"}],"stateMutability":"view","type":"function"},{"inputs":[{"internalType":"bytes32","name":"","type":"bytes32"}],"name":"hasRated","outputs":[{"internalType":"bool","name":"","type":"bool"}],"stateMutability":"view","type":"function"},{"inputs":[],"name":"owner","outputs":[{"internalType":"address","name":"","type":"address"}],"stateMutability":"view","type":"function"},{"inputs":[{"internalType":"address","name":"","type":"address"},{"internalType":"uint256","name":"","type":"uint256"}],"name":"ratings","outputs":[{"internalType":"address","name":"supporter","type":"address"},{"internalType":"uint8","name":"rating","type":"uint8"},{"internalType":"string","name":"comment","type":"string"},{"internalType":"uint256","name":"timestamp","type":"uint256"},{"internalType":"bool","name":"exists","type":"bool"}],"stateMutability":"view","type":"function"},{"inputs":[],"name":"renounceOwnership","outputs":[],"stateMutability":"nonpayable","type":"function"},{"inputs":[{"internalType":"address","name":"creator","type":"address"},{"internalType":"uint8","name":"rating","type":"uint8"},{"internalType":"string","name":"comment","type":"string"},{"internalType":"string","name":"requestId","type":"string"}],"name":"submitRating","outputs":[],"stateMutability":"nonpayable","type":"function"},{"inputs":[{"internalType":"address","name":"newOwner","type":"address"}],"name":"transferOwnership","outputs":[],"stateMutability":"nonpayable","type":"function"},{"inputs":[{"internalType":"string","name":"requestId","type":"string"},{"internalType":"bool","name":"completed","type":"bool"}],"name":"updateRequestStatus","outputs":[],"stateMutability":"nonpayable","type":"function"}],"evm":{"bytecode":{"linkReferences":{},"object":"608060405234801561001057600080fd5b50338061003757604051631e4fbdf760e01b81526000600482015260240160405180910390fd5b61004081610046565b50610096565b600080546001600160a01b038381166001600160a01b0319831681178455604051919092169283917f8be0079c531659141344cd1fd0a4f28419497f9722a3daafe3b4186f6b6457e09190a35050565b611216806100a56000396000f3fe608060405234801561001057600080fd5b50600436106101375760003560e01c806374a99aec116100b8578063a3c28ba61161007c578063a3c28ba61461033f578063bb0e4ea214610352578063c33d28e11461035a578063c8b6752214610362578063ecdb123514610375578063f2fde38b146103a157600080fd5b806374a99aec146102a15780638253b9ec146102b45780638da5cb5b146102d757806394e113ea146102f25780639c89a0e21461030c57600080fd5b8063424017aa116100ff578063424017aa146101e5578063472a65d4146101ed5780636289b608146102025780636455588114610286578063715018a61461029957600080fd5b8063115a460f1461013c57806327ff6223146101805780632a0e54bd146101965780633dbeacbf146101ba57806340b89270146101dd575b600080fd5b61016b61014a366004610cc4565b6001600160a01b031660009081526001602052604090206006015460ff1690565b60405190151581526020015b60405180910390f35b610188606481565b604051908152602001610177565b6101a96101a4366004610cdf565b6103b4565b604051610177959493929190610d59565b6101cd6101c8366004610cdf565b61048a565b6040516101779493929190610d9f565b610188600081565b610188600a81565b6102006101fb366004610e80565b6105c7565b005b61024f610210366004610cc4565b60016020819052600091825260409091208054918101546002820154600383015460048401546005850154600690950154939492939192909160ff1687565b604080519788526020880196909652948601939093526060850191909152608084015260a0830152151560c082015260e001610177565b610200610294366004610cc4565b6108f0565b610200610944565b6102006102af366004610f0d565b610958565b61016b6102c2366004610f64565b60036020526000908152604090205460ff1681565b6000546040516001600160a01b039091168152602001610177565b6102fa600581565b60405160ff9091168152602001610177565b61031f61031a366004610cc4565b610aec565b604080519485526020850193909352918301526060820152608001610177565b61018861034d366004610cc4565b610b40565b6102fa600181565b610188600581565b610188610370366004610cc4565b610ba5565b610188610383366004610cc4565b6001600160a01b031660009081526001602052604090206005015490565b6102006103af366004610cc4565b610bed565b6002602090815260009283526040808420909152908252902080546001820180546001600160a01b03831693600160a01b90930460ff169291906103f790610f7d565b80601f016020809104026020016040519081016040528092919081815260200182805461042390610f7d565b80156104705780601f1061044557610100808354040283529160200191610470565b820191906000526020600020905b81548152906001019060200180831161045357829003601f168201915b50505050600283015460039093015491929160ff16905085565b6001600160a01b038216600090815260026020908152604080832084845290915281206003810154829160609183919060ff166105065760405162461bcd60e51b815260206004820152601560248201527414985d1a5b99c8191bd95cc81b9bdd08195e1a5cdd605a1b60448201526064015b60405180910390fd5b805460028201546001830180546001600160a01b03841693600160a01b900460ff169290829061053590610f7d565b80601f016020809104026020016040519081016040528092919081815260200182805461056190610f7d565b80156105ae5780601f10610583576101008083540402835291602001916105ae565b820191906000526020600020905b81548152906001019060200180831161059157829003601f168201915b5050505050915094509450945094505092959194509250565b6001600160a01b0384166106175760405162461bcd60e51b8152602060048201526017602482015276496e76616c69642063726561746f72206164647265737360481b60448201526064016104fd565b600160ff84161080159061062f5750600560ff841611155b61067b5760405162461bcd60e51b815260206004820152601e60248201527f526174696e67206d757374206265206265747765656e203120616e642035000060448201526064016104fd565b6101f4825111156106c15760405162461bcd60e51b815260206004820152601060248201526f436f6d6d656e7420746f6f206c6f6e6760801b60448201526064016104fd565b60008433836040516020016106d893929190610fb7565b60408051601f1981840301815291815281516020928301206000818152600390935291205490915060ff16156107505760405162461bcd60e51b815260206004820152601a60248201527f416c72656164792072617465642074686973207265717565737400000000000060448201526064016104fd565b6000818152600360209081526040808320805460ff191660019081179091556001600160a01b03891684529091529020600681015460ff166107a0576032815560068101805460ff191660011790555b60058101546040805160a08101825233815260ff80891660208084019182528385018a81524260608601526001608086018190526001600160a01b038e81166000908152600285528881208a825290945296909220855181549451909516600160a01b026001600160a81b03199094169490961693909317919091178455905191929190820190610831908261104c565b50606082015160028201556080909101516003909101805460ff191691151591909117905560058201805490600061086883611122565b909155505060018201805490600061087f83611122565b91905055508560ff1682600401600082825461089b919061113b565b909155505060405133906001600160a01b038916907f0e3f87f0b7198277871062987aa8b26c5863a00b6f8e463d224b951be69a6ffb906108df908a908a90611154565b60405180910390a350505050505050565b6108f8610c2b565b6001600160a01b0316600090815260016020819052604082208281559081018290556002810182905560038101829055600481018290556005810191909155600601805460ff19169055565b61094c610c2b565b6109566000610c58565b565b3361099f5760405162461bcd60e51b8152602060048201526017602482015276496e76616c69642063726561746f72206164647265737360481b60448201526064016104fd565b336000908152600160205260409020600681015460ff166109ce576032815560068101805460ff191660011790555b8115610a1e576002810180549060006109e683611122565b909155505080546064906109fc9060059061113b565b11610a14578054610a0f9060059061113b565b610a17565b60645b8155610a56565b600381018054906000610a3083611122565b90915550508054600a10610a45576000610a53565b8054610a5390600a90611170565b81555b336001600160a01b03167f596c3882dec0c712cd5c2a7b658e91d8bd3511288a7e4d094ee1231d6fb1c0468484604051610a91929190611183565b60405180910390a28054600282015460038301546040805193845260208401929092529082015233907fc2fd17ad7e9f23b8607f0bd02d7a6cdcccd5a964fa99ce5a066ed34c5b4bb55b9060600160405180910390a2505050565b6001600160a01b038116600090815260016020526040812060068101548291829182919060ff16610b1e576032610b21565b80545b8160010154826002015483600301549450945094509450509193509193565b6001600160a01b0381166000908152600160205260408120600381015460028201548391610b6d9161113b565b905080600003610b81575060009392505050565b8082600201546064610b9391906111a7565b610b9d91906111be565b949350505050565b6001600160a01b03811660009081526001602081905260408220908101548203610bd25750600092915050565b80600101548160040154610be691906111be565b9392505050565b610bf5610c2b565b6001600160a01b038116610c1f57604051631e4fbdf760e01b8152600060048201526024016104fd565b610c2881610c58565b50565b6000546001600160a01b031633146109565760405163118cdaa760e01b81523360048201526024016104fd565b600080546001600160a01b038381166001600160a01b0319831681178455604051919092169283917f8be0079c531659141344cd1fd0a4f28419497f9722a3daafe3b4186f6b6457e09190a35050565b80356001600160a01b0381168114610cbf57600080fd5b919050565b600060208284031215610cd657600080fd5b610be682610ca8565b60008060408385031215610cf257600080fd5b610cfb83610ca8565b946020939093013593505050565b60005b83811015610d24578181015183820152602001610d0c565b50506000910152565b60008151808452610d45816020860160208601610d09565b601f01601f19169290920160200192915050565b6001600160a01b038616815260ff8516602082015260a060408201819052600090610d8690830186610d2d565b6060830194909452509015156080909101529392505050565b6001600160a01b038516815260ff84166020820152608060408201819052600090610dcc90830185610d2d565b905082606083015295945050505050565b634e487b7160e01b600052604160045260246000fd5b600082601f830112610e0457600080fd5b813567ffffffffffffffff80821115610e1f57610e1f610ddd565b604051601f8301601f19908116603f01168101908282118183101715610e4757610e47610ddd565b81604052838152866020858801011115610e6057600080fd5b836020870160208301376000602085830101528094505050505092915050565b60008060008060808587031215610e9657600080fd5b610e9f85610ca8565b9350602085013560ff81168114610eb557600080fd5b9250604085013567ffffffffffffffff80821115610ed257600080fd5b610ede88838901610df3565b93506060870135915080821115610ef457600080fd5b50610f0187828801610df3565b91505092959194509250565b60008060408385031215610f2057600080fd5b823567ffffffffffffffff811115610f3757600080fd5b610f4385828601610df3565b92505060208301358015158114610f5957600080fd5b809150509250929050565b600060208284031215610f7657600080fd5b5035919050565b600181811c90821680610f9157607f821691505b602082108103610fb157634e487b7160e01b600052602260045260246000fd5b50919050565b60006bffffffffffffffffffffffff19808660601b168352808560601b166014840152508251610fee816028850160208701610d09565b91909101602801949350505050565b601f82111561104757600081815260208120601f850160051c810160208610156110245750805b601f850160051c820191505b8181101561104357828155600101611030565b5050505b505050565b815167ffffffffffffffff81111561106657611066610ddd565b61107a816110748454610f7d565b84610ffd565b602080601f8311600181146110af57600084156110975750858301515b600019600386901b1c1916600185901b178555611043565b600085815260208120601f198616915b828110156110de578886015182559484019460019091019084016110bf565b50858210156110fc5787850151600019600388901b60f8161c191681555b5050505050600190811b01905550565b634e487b7160e01b600052601160045260246000fd5b6000600182016111345761113461110c565b5060010190565b8082018082111561114e5761114e61110c565b92915050565b60ff83168152604060208201526000610b9d6040830184610d2d565b8181038181111561114e5761114e61110c565b6040815260006111966040830185610d2d565b905082151560208301529392505050565b808202811582820484141761114e5761114e61110c565b6000826111db57634e487b7160e01b600052601260045260246000fd5b50049056fea2646970667358221220202fe05fe27f161c33aa6405e6a086c9485fd25c92af3204b5ccfbcf26b2a1f564736f6c63430008140033","opcodes":"PUSH1 0x80 PUSH1 0x40 MSTORE CALLVALUE DUP1 ISZERO PUSH2 0x10 JUMPI PUSH1 0x0 DUP1 REVERT JUMPDEST POP CALLER DUP1 PUSH2 0x37 JUMPI PUSH1 0x40 MLOAD PUSH4 0x1E4FBDF7 PUSH1 0xE0 SHL DUP2 MSTORE PUSH1 0x0 PUSH1 0x4 DUP3 ADD MSTORE PUSH1 0x24 ADD PUSH1 0x40 MLOAD DUP1 SWAP2 SUB SWAP1 REVERT JUMPDEST PUSH2 0x40 DUP2 PUSH2 0x46 JUMP JUMPDEST POP PUSH2 0x96 JUMP JUMPDEST PUSH1 0x0 DUP1 SLOAD PUSH1 0x1 PUSH1 0x1 PUSH1 0xA0 SHL SUB DUP4 DUP2 AND PUSH1 0x1 PUSH1 0x1 PUSH1 0xA0 SHL SUB NOT DUP4 AND DUP2 OR DUP5 SSTORE PUSH1 0x40 MLOAD SWAP2 SWAP1 SWAP3 AND SWAP3 DUP4 SWAP2 PUSH32 0x8BE0079C531659141344CD1FD0A4F28419497F9722A3DAAFE3B4186F6B6457E0 SWAP2 SWAP1 LOG3 POP POP JUMP JUMPDEST PUSH2 0x1216 DUP1 PUSH2 0xA5 PUSH1 0x0 CODECOPY PUSH1 0x0 RETURN INVALID PUSH1 0x80 PUSH1 0x40 MSTORE CALLVALUE DUP1 ISZERO PUSH2 0x10 JUMPI PUSH1 0x0 DUP1 REVERT JUMPDEST POP PUSH1 0x4 CALLDATASIZE LT PUSH2 0x137 JUMPI PUSH1 0x0 CALLDATALOAD PUSH1 0xE0 SHR DUP1 PUSH4 0x74A99AEC GT PUSH2 0xB8 JUMPI DUP1 PUSH4 0xA3C28BA6 GT PUSH2 0x7C JUMPI DUP1 PUSH4 0xA3C28BA6 EQ PUSH2 0x33F JUMPI DUP1 PUSH4 0xBB0E4EA2 EQ PUSH2 0x352 JUMPI DUP1 PUSH4 0xC33D28E1 EQ PUSH2 0x35A JUMPI DUP1 PUSH4 0xC8B67522 EQ PUSH2 0x362 JUMPI DUP1 PUSH4 0xECDB1235 EQ PUSH2 0x375 JUMPI DUP1 PUSH4 0xF2FDE38B EQ PUSH2 0x3A1 JUMPI PUSH1 0x0 DUP1 REVERT JUMPDEST DUP1 PUSH4 0x74A99AEC EQ PUSH2 0x2A1 JUMPI DUP1 PUSH4 0x8253B9EC EQ PUSH2 0x2B4 JUMPI DUP1 PUSH4 0x8DA5CB5B EQ PUSH2 0x2D7 JUMPI DUP1 PUSH4 0x94E113EA EQ PUSH2 0x2F2 JUMPI DUP1 PUSH4 0x9C89A0E2 EQ PUSH2 0x30C JUMPI PUSH1 0x0 DUP1 REVERT JUMPDEST DUP1 PUSH4 0x424017AA GT PUSH2 0xFF JUMPI DUP1 PUSH4 0x424017AA EQ PUSH2 0x1E5 JUMPI DUP1 PUSH4 0x472A65D4 EQ PUSH2 0x1ED JUMPI DUP1 PUSH4 0x6289B608 EQ PUSH2 0x202 JUMPI DUP1 PUSH4 0x64555881 EQ PUSH2 0x286 JUMPI DUP1 PUSH4 0x715018A6 EQ PUSH2 0x299 JUMPI PUSH1 0x0 DUP1 REVERT JUMPDEST DUP1 PUSH4 0x115A460F EQ PUSH2 0x13C JUMPI DUP1 PUSH4 0x27FF6223 EQ PUSH2 0x180 JUMPI DUP1 PUSH4 0x2A0E54BD EQ PUSH2 0x196 JUMPI DUP1 PUSH4 0x3DBEACBF EQ PUSH2 0x1BA JUMPI DUP1 PUSH4 0x40B89270 EQ PUSH2 0x1DD JUMPI JUMPDEST PUSH1 0x0 DUP1 REVERT JUMPDEST PUSH2 0x16B PUSH2 0x14A CALLDATASIZE PUSH1 0x4 PUSH2 0xCC4 JUMP JUMPDEST PUSH1 0x1 PUSH1 0x1 PUSH1 0xA0 SHL SUB AND PUSH1 0x0 SWAP1 DUP2 MSTORE PUSH1 0x1 PUSH1 0x20 MSTORE PUSH1 0x40 SWAP1 KECCAK256 PUSH1 0x6 ADD SLOAD PUSH1 0xFF AND SWAP1 JUMP JUMPDEST PUSH1 0x40 MLOAD SWAP1 ISZERO ISZERO DUP2 MSTORE PUSH1 0x20 ADD JUMPDEST PUSH1 0x40 MLOAD DUP1 SWAP2 SUB SWAP1 RETURN JUMPDEST PUSH2 0x188 PUSH1 0x64 DUP2 JUMP JUMPDEST PUSH1 0x40 MLOAD SWAP1 DUP2 MSTORE PUSH1 0x20 ADD PUSH2 0x177 JUMP JUMPDEST PUSH2 0x1A9 PUSH2 0x1A4 CALLDATASIZE PUSH1 0x4 PUSH2 0xCDF JUMP JUMPDEST PUSH2 0x3B4 JUMP JUMPDEST PUSH1 0x40 MLOAD PUSH2 0x177 SWAP6 SWAP5 SWAP4 SWAP3 SWAP2 SWAP1 PUSH2 0xD59 JUMP JUMPDEST PUSH2 0x1CD PUSH2 0x1C8 CALLDATASIZE PUSH1 0x4 PUSH2 0xCDF JUMP JUMPDEST PUSH2 0x48A JUMP JUMPDEST PUSH1 0x40 MLOAD PUSH2 0x177 SWAP5 SWAP4 SWAP3 SWAP2 SWAP1 PUSH2 0xD9F JUMP JUMPDEST PUSH2 0x188 PUSH1 0x0 DUP2 JUMP JUMPDEST PUSH2 0x188 PUSH1 0xA DUP2 JUMP JUMPDEST PUSH2 0x200 PUSH2 0x1FB CALLDATASIZE PUSH1 0x4 PUSH2 0xE80 JUMP JUMPDEST PUSH2 0x5C7 JUMP JUMPDEST STOP JUMPDEST PUSH2 0x24F PUSH2 0x210 CALLDATASIZE PUSH1 0x4 PUSH2 0xCC4 JUMP JUMPDEST PUSH1 0x1 PUSH1 0x20 DUP2 SWAP1 MSTORE PUSH1 0x0 SWAP2 DUP3 MSTORE PUSH1 0x40 SWAP1 SWAP2 KECCAK256 DUP1 SLOAD SWAP2 DUP2 ADD SLOAD PUSH1 0x2 DUP3 ADD SLOAD PUSH1 0x3 DUP4 ADD SLOAD PUSH1 0x4 DUP5 ADD SLOAD PUSH1 0x5 DUP6 ADD SLOAD PUSH1 0x6 SWAP1 SWAP6 ADD SLOAD SWAP4 SWAP5 SWAP3 SWAP4 SWAP2 SWAP3 SWAP1 SWAP2 PUSH1 0xFF AND DUP8 JUMP JUMPDEST PUSH1 0x40 DUP1 MLOAD SWAP8 DUP9 MSTORE PUSH1 0x20 DUP9 ADD SWAP7 SWAP1 SWAP7 MSTORE SWAP5 DUP7 ADD SWAP4 SWAP1 SWAP4 MSTORE PUSH1 0x60 DUP6 ADD SWAP2 SWAP1 SWAP2 MSTORE PUSH1 0x80 DUP5 ADD MSTORE PUSH1 0xA0 DUP4 ADD MSTORE ISZERO ISZERO PUSH1 0xC0 DUP3 ADD MSTORE PUSH1 0xE0 ADD PUSH2 0x177 JUMP JUMPDEST PUSH2 0x200 PUSH2 0x294 CALLDATASIZE PUSH1 0x4 PUSH2 0xCC4 JUMP JUMPDEST PUSH2 0x8F0 JUMP JUMPDEST PUSH2 0x200 PUSH2 0x944 JUMP JUMPDEST PUSH2 0x200 PUSH2 0x2AF CALLDATASIZE PUSH1 0x4 PUSH2 0xF0D JUMP JUMPDEST PUSH2 0x958 JUMP JUMPDEST PUSH2 0x16B PUSH2 0x2C2 CALLDATASIZE PUSH1 0x4 PUSH2 0xF64 JUMP JUMPDEST PUSH1 0x3 PUSH1 0x20 MSTORE PUSH1 0x0 SWAP1 DUP2 MSTORE PUSH1 0x40 SWAP1 KECCAK256 SLOAD PUSH1 0xFF AND DUP2 JUMP JUMPDEST PUSH1 0x0 SLOAD PUSH1 0x40 MLOAD PUSH1 0x1 PUSH1 0x1 PUSH1 0xA0 SHL SUB SWAP1 SWAP2 AND DUP2 MSTORE PUSH1 0x20 ADD PUSH2 0x177 JUMP JUMPDEST PUSH2 0x2FA PUSH1 0x5 DUP2 JUMP JUMPDEST PUSH1 0x40 MLOAD PUSH1 0xFF SWAP1 SWAP2 AND DUP2 MSTORE PUSH1 0x20 ADD PUSH2 0x177 JUMP JUMPDEST PUSH2 0x31F PUSH2 0x31A CALLDATASIZE PUSH1 0x4 PUSH2 0xCC4 JUMP JUMPDEST PUSH2 0xAEC JUMP JUMPDEST PUSH1 0x40 DUP1 MLOAD SWAP5 DUP6 MSTORE PUSH1 0x20 DUP6 ADD SWAP4 SWAP1 SWAP4 MSTORE SWAP2 DUP4 ADD MSTORE PUSH1 0x60 DUP3 ADD MSTORE PUSH1 0x80 ADD PUSH2 0x177 JUMP JUMPDEST PUSH2 0x188 PUSH2 0x34D CALLDATASIZE PUSH1 0x4 PUSH2 0xCC4 JUMP JUMPDEST PUSH2 0xB40 JUMP JUMPDEST PUSH2 0x2FA PUSH1 0x1 DUP2 JUMP JUMPDEST PUSH2 0x188 PUSH1 0x5 DUP2 JUMP JUMPDEST PUSH2 0x188 PUSH2 0x370 CALLDATASIZE PUSH1 0x4 PUSH2 0xCC4 JUMP JUMPDEST PUSH2 0xBA5 JUMP JUMPDEST PUSH2 0x188 PUSH2 0x383 CALLDATASIZE PUSH1 0x4 PUSH2 0xCC4 JUMP JUMPDEST PUSH1 0x1 PUSH1 0x1 PUSH1 0xA0 SHL SUB AND PUSH1 0x0 SWAP1 DUP2 MSTORE PUSH1 0x1 PUSH1 0x20 MSTORE PUSH1 0x40 SWAP1 KECCAK256 PUSH1 0x5 ADD SLOAD SWAP1 JUMP JUMPDEST PUSH2 0x200 PUSH2 0x3AF CALLDATASIZE PUSH1 0x4 PUSH2 0xCC4 JUMP JUMPDEST PUSH2 0xBED JUMP JUMPDEST PUSH1 0x2 PUSH1 0x20 SWAP1 DUP2 MSTORE PUSH1 0x0 SWAP3 DUP4 MSTORE PUSH1 0x40 DUP1 DUP5 KECCAK256 SWAP1 SWAP2 MSTORE SWAP1 DUP3 MSTORE SWAP1 KECCAK256 DUP1 SLOAD PUSH1 0x1 DUP3 ADD DUP1 SLOAD PUSH1 0x1 PUSH1 0x1 PUSH1 0xA0 SHL SUB DUP4 AND SWAP4 PUSH1 0x1 PUSH1 0xA0 SHL SWAP1 SWAP4 DIV PUSH1 0xFF AND SWAP3 SWAP2 SWAP1 PUSH2 0x3F7 SWAP1 PUSH2 0xF7D JUMP JUMPDEST DUP1 PUSH1 0x1F ADD PUSH1 0x20 DUP1 SWAP2 DIV MUL PUSH1 0x20 ADD PUSH1 0x40 MLOAD SWAP1 DUP2 ADD PUSH1 0x40 MSTORE DUP1 SWAP3 SWAP2 SWAP1 DUP2 DUP2 MSTORE PUSH1 0x20 ADD DUP3 DUP1 SLOAD PUSH2 0x423 SWAP1 PUSH2 0xF7D JUMP JUMPDEST DUP1 ISZERO PUSH2 0x470 JUMPI DUP1 PUSH1 0x1F LT PUSH2 0x445 JUMPI PUSH2 0x100 DUP1 DUP4 SLOAD DIV MUL DUP4 MSTORE SWAP2 PUSH1 0x20 ADD SWAP2 PUSH2 0x470 JUMP JUMPDEST DUP3 ADD SWAP2 SWAP1 PUSH1 0x0 MSTORE PUSH1 0x20 PUSH1 0x0 KECCAK256 SWAP1 JUMPDEST DUP2 SLOAD DUP2 MSTORE SWAP1 PUSH1 0x1 ADD SWAP1 PUSH1 0x20 ADD DUP1 DUP4 GT PUSH2 0x453 JUMPI DUP3 SWAP1 SUB PUSH1 0x1F AND DUP3 ADD SWAP2 JUMPDEST POP POP POP POP PUSH1 0x2 DUP4 ADD SLOAD PUSH1 0x3 SWAP1 SWAP4 ADD SLOAD SWAP2 SWAP3 SWAP2 PUSH1 0xFF AND SWAP1 POP DUP6 JUMP JUMPDEST PUSH1 0x1 PUSH1 0x1 PUSH1 0xA0 SHL SUB DUP3 AND PUSH1 0x0 SWAP1 DUP2 MSTORE PUSH1 0x2 PUSH1 0x20 SWAP1 DUP2 MSTORE PUSH1 0x40 DUP1 DUP4 KECCAK256 DUP5 DUP5 MSTORE SWAP1 SWAP2 MSTORE DUP2 KECCAK256 PUSH1 0x3 DUP2 ADD SLOAD DUP3 SWAP2 PUSH1 0x60 SWAP2 DUP4 SWAP2 SWAP1 PUSH1 0xFF AND PUSH2 0x506 JUMPI PUSH1 0x40 MLOAD PUSH3 0x461BCD PUSH1 0xE5 SHL DUP2 MSTORE PUSH1 0x20 PUSH1 0x4 DUP3 ADD MSTORE PUSH1 0x15 PUSH1 0x24 DUP3 ADD MSTORE PUSH21 0x14985D1A5B99C8191BD95CC81B9BDD08195E1A5CDD PUSH1 0x5A SHL PUSH1 0x44 DUP3 ADD MSTORE PUSH1 0x64 ADD JUMPDEST PUSH1 0x40 MLOAD DUP1 SWAP2 SUB SWAP1 REVERT JUMPDEST DUP1 SLOAD PUSH1 0x2 DUP3 ADD SLOAD PUSH1 0x1 DUP4 ADD DUP1 SLOAD PUSH1 0x1 PUSH1 0x1 PUSH1 0xA0 SHL SUB DUP5 AND SWAP4 PUSH1 0x1 PUSH1 0xA0 SHL SWAP1 DIV PUSH1 0xFF AND SWAP3 SWAP1 DUP3 SWAP1 PUSH2 0x535 SWAP1 PUSH2 0xF7D JUMP JUMPDEST DUP1 PUSH1 0x1F ADD PUSH1 0x20 DUP1 SWAP2 DIV MUL PUSH1 0x20 ADD PUSH1 0x40 MLOAD SWAP1 DUP2 ADD PUSH1 0x40 MSTORE DUP1 SWAP3 SWAP2 SWAP1 DUP2 DUP2 MSTORE PUSH1 0x20 ADD DUP3 DUP1 SLOAD PUSH2 0x561 SWAP1 PUSH2 0xF7D JUMP JUMPDEST DUP1 ISZERO PUSH2 0x5AE JUMPI DUP1 PUSH1 0x1F LT PUSH2 0x583 JUMPI PUSH2 0x100 DUP1 DUP4 SLOAD DIV MUL DUP4 MSTORE SWAP2 PUSH1 0x20 ADD SWAP2 PUSH2 0x5AE JUMP JUMPDEST DUP3 ADD SWAP2 SWAP1 PUSH1 0x0 MSTORE PUSH1 0x20 PUSH1 0x0 KECCAK256 SWAP1 JUMPDEST DUP2 SLOAD DUP2 MSTORE SWAP1 PUSH1 0x1 ADD SWAP1 PUSH1 0x20 ADD DUP1 DUP4 GT PUSH2 0x591 JUMPI DUP3 SWAP1 SUB PUSH1 0x1F AND DUP3 ADD SWAP2 JUMPDEST POP POP POP POP POP SWAP2 POP SWAP5 POP SWAP5 POP SWAP5 POP SWAP5 POP POP SWAP3 SWAP6 SWAP2 SWAP5 POP SWAP3 POP JUMP JUMPDEST PUSH1 0x1 PUSH1 0x1 PUSH1 0xA0 SHL SUB DUP5 AND PUSH2 0x617 JUMPI PUSH1 0x40 MLOAD PUSH3 0x461BCD PUSH1 0xE5 SHL DUP2 MSTORE PUSH1 0x20 PUSH1 0x4 DUP3 ADD MSTORE PUSH1 0x17 PUSH1 0x24 DUP3 ADD MSTORE PUSH23 0x496E76616C69642063726561746F722061646472657373 PUSH1 0x48 SHL PUSH1 0x44 DUP3 ADD MSTORE PUSH1 0x64 ADD PUSH2 0x4FD JUMP JUMPDEST PUSH1 0x1 PUSH1 0xFF DUP5 AND LT DUP1 ISZERO SWAP1 PUSH2 0x62F JUMPI POP PUSH1 0x5 PUSH1 0xFF DUP5 AND GT ISZERO JUMPDEST PUSH2 0x67B JUMPI PUSH1 0x40 MLOAD PUSH3 0x461BCD PUSH1 0xE5 SHL DUP2 MSTORE PUSH1 0x20 PUSH1 0x4 DUP3 ADD MSTORE PUSH1 0x1E PUSH1 0x24 DUP3 ADD MSTORE PUSH32 0x526174696E67206D757374206265206265747765656E203120616E6420350000 PUSH1 0x44 DUP3 ADD MSTORE PUSH1 0x64 ADD PUSH2 0x4FD JUMP JUMPDEST PUSH2 0x1F4 DUP3 MLOAD GT ISZERO PUSH2 0x6C1 JUMPI PUSH1 0x40 MLOAD PUSH3 0x461BCD PUSH1 0xE5 SHL DUP2 MSTORE PUSH1 0x20 PUSH1 0x4 DUP3 ADD MSTORE PUSH1 0x10 PUSH1 0x24 DUP3 ADD MSTORE PUSH16 0x436F6D6D656E7420746F6F206C6F6E67 PUSH1 0x80 SHL PUSH1 0x44 DUP3 ADD MSTORE PUSH1 0x64 ADD PUSH2 0x4FD JUMP JUMPDEST PUSH1 0x0 DUP5 CALLER DUP4 PUSH1 0x40 MLOAD PUSH1 0x20 ADD PUSH2 0x6D8 SWAP4 SWAP3 SWAP2 SWAP1 PUSH2 0xFB7 JUMP JUMPDEST PUSH1 0x40 DUP1 MLOAD PUSH1 0x1F NOT DUP2 DUP5 SUB ADD DUP2 MSTORE SWAP2 DUP2 MSTORE DUP2 MLOAD PUSH1 0x20 SWAP3 DUP4 ADD KECCAK256 PUSH1 0x0 DUP2 DUP2 MSTORE PUSH1 0x3 SWAP1 SWAP4 MSTORE SWAP2 KECCAK256 SLOAD SWAP1 SWAP2 POP PUSH1 0xFF AND ISZERO PUSH2 0x750 JUMPI PUSH1 0x40 MLOAD PUSH3 0x461BCD PUSH1 0xE5 SHL DUP2 MSTORE PUSH1 0x20 PUSH1 0x4 DUP3 ADD MSTORE PUSH1 0x1A PUSH1 0x24 DUP3 ADD MSTORE PUSH32 0x416C726561647920726174656420746869732072657175657374000000000000 PUSH1 0x44 DUP3 ADD MSTORE PUSH1 0x64 ADD PUSH2 0x4FD JUMP JUMPDEST PUSH1 0x0 DUP2 DUP2 MSTORE PUSH1 0x3 PUSH1 0x20 SWAP1 DUP2 MSTORE PUSH1 0x40 DUP1 DUP4 KECCAK256 DUP1 SLOAD PUSH1 0xFF NOT AND PUSH1 0x1 SWAP1 DUP2 OR SWAP1 SWAP2 SSTORE PUSH1 0x1 PUSH1 0x1 PUSH1 0xA0 SHL SUB DUP10 AND DUP5 MSTORE SWAP1 SWAP2 MSTORE SWAP1 KECCAK256 PUSH1 0x6 DUP2 ADD SLOAD PUSH1 0xFF AND PUSH2 0x7A0 JUMPI PUSH1 0x32 DUP2 SSTORE PUSH1 0x6 DUP2 ADD DUP1 SLOAD PUSH1 0xFF NOT AND PUSH1 0x1 OR SWAP1 SSTORE JUMPDEST PUSH1 0x5 DUP2 ADD SLOAD PUSH1 0x40 DUP1 MLOAD PUSH1 0xA0 DUP2 ADD DUP3 MSTORE CALLER DUP2 MSTORE PUSH1 0xFF DUP1 DUP10 AND PUSH1 0x20 DUP1 DUP5 ADD SWAP2 DUP3 MSTORE DUP4 DUP6 ADD DUP11 DUP2 MSTORE TIMESTAMP PUSH1 0x60 DUP7 ADD MSTORE PUSH1 0x1 PUSH1 0x80 DUP7 ADD DUP2 SWAP1 MSTORE PUSH1 0x1 PUSH1 0x1 PUSH1 0xA0 SHL SUB DUP15 DUP2 AND PUSH1 0x0 SWAP1 DUP2 MSTORE PUSH1 0x2 DUP6 MSTORE DUP9 DUP2 KECCAK256 DUP11 DUP3 MSTORE SWAP1 SWAP5 MSTORE SWAP7 SWAP1 SWAP3 KECCAK256 DUP6 MLOAD DUP2 SLOAD SWAP5 MLOAD SWAP1 SWAP6 AND PUSH1 0x1 PUSH1 0xA0 SHL MUL PUSH1 0x1 PUSH1 0x1 PUSH1 0xA8 SHL SUB NOT SWAP1 SWAP5 AND SWAP5 SWAP1 SWAP7 AND SWAP4 SWAP1 SWAP4 OR SWAP2 SWAP1 SWAP2 OR DUP5 SSTORE SWAP1 MLOAD SWAP2 SWAP3 SWAP2 SWAP1 DUP3 ADD SWAP1 PUSH2 0x831 SWAP1 DUP3 PUSH2 0x104C JUMP JUMPDEST POP PUSH1 0x60 DUP3 ADD MLOAD PUSH1 0x2 DUP3 ADD SSTORE PUSH1 0x80 SWAP1 SWAP2 ADD MLOAD PUSH1 0x3 SWAP1 SWAP2 ADD DUP1 SLOAD PUSH1 0xFF NOT AND SWAP2 ISZERO ISZERO SWAP2 SWAP1 SWAP2 OR SWAP1 SSTORE PUSH1 0x5 DUP3 ADD DUP1 SLOAD SWAP1 PUSH1 0x0 PUSH2 0x868 DUP4 PUSH2 0x1122 JUMP JUMPDEST SWAP1 SWAP2 SSTORE POP POP PUSH1 0x1 DUP3 ADD DUP1 SLOAD SWAP1 PUSH1 0x0 PUSH2 0x87F DUP4 PUSH2 0x1122 JUMP JUMPDEST SWAP2 SWAP1 POP SSTORE POP DUP6 PUSH1 0xFF AND DUP3 PUSH1 0x4 ADD PUSH1 0x0 DUP3 DUP3 SLOAD PUSH2 0x89B SWAP2 SWAP1 PUSH2 0x113B JUMP JUMPDEST SWAP1 SWAP2 SSTORE POP POP PUSH1 0x40 MLOAD CALLER SWAP1 PUSH1 0x1 PUSH1 0x1 PUSH1 0xA0 SHL SUB DUP10 AND SWAP1 PUSH32 0xE3F87F0B7198277871062987AA8B26C5863A00B6F8E463D224B951BE69A6FFB SWAP1 PUSH2 0x8DF SWAP1 DUP11 SWAP1 DUP11 SWAP1 PUSH2 0x1154 JUMP JUMPDEST PUSH1 0x40 MLOAD DUP1 SWAP2 SUB SWAP1 LOG3 POP POP POP POP POP POP POP JUMP JUMPDEST PUSH2 0x8F8 PUSH2 0xC2B JUMP JUMPDEST PUSH1 0x1 PUSH1 0x1 PUSH1 0xA0 SHL SUB AND PUSH1 0x0 SWAP1 DUP2 MSTORE PUSH1 0x1 PUSH1 0x20 DUP2 SWAP1 MSTORE PUSH1 0x40 DUP3 KECCAK256 DUP3 DUP2 SSTORE SWAP1 DUP2 ADD DUP3 SWAP1 SSTORE PUSH1 0x2 DUP2 ADD DUP3 SWAP1 SSTORE PUSH1 0x3 DUP2 ADD DUP3 SWAP1 SSTORE PUSH1 0x4 DUP2 ADD DUP3 SWAP1 SSTORE PUSH1 0x5 DUP2 ADD SWAP2 SWAP1 SWAP2 SSTORE PUSH1 0x6 ADD DUP1 SLOAD PUSH1 0xFF NOT AND SWAP1 SSTORE JUMP JUMPDEST PUSH2 0x94C PUSH2 0xC2B JUMP JUMPDEST PUSH2 0x956 PUSH1 0x0 PUSH2 0xC58 JUMP JUMPDEST JUMP JUMPDEST CALLER PUSH2 0x99F JUMPI PUSH1 0x40 MLOAD PUSH3 0x461BCD PUSH1 0xE5 SHL DUP2 MSTORE PUSH1 0x20 PUSH1 0x4 DUP3 ADD MSTORE PUSH1 0x17 PUSH1 0x24 DUP3 ADD MSTORE PUSH23 0x496E76616C69642063726561746F722061646472657373 PUSH1 0x48 SHL PUSH1 0x44 DUP3 ADD MSTORE PUSH1 0x64 ADD PUSH2 0x4FD JUMP JUMPDEST CALLER PUSH1 0x0 SWAP1 DUP2 MSTORE PUSH1 0x1 PUSH1 0x20 MSTORE PUSH1 0x40 SWAP1 KECCAK256 PUSH1 0x6 DUP2 ADD SLOAD PUSH1 0xFF AND PUSH2 0x9CE JUMPI PUSH1 0x32 DUP2 SSTORE PUSH1 0x6 DUP2 ADD DUP1 SLOAD PUSH1 0xFF NOT AND PUSH1 0x1 OR SWAP1 SSTORE JUMPDEST DUP2 ISZERO PUSH2 0xA1E JUMPI PUSH1 0x2 DUP2 ADD DUP1 SLOAD SWAP1 PUSH1 0x0 PUSH2 0x9E6 DUP4 PUSH2 0x1122 JUMP JUMPDEST SWAP1 SWAP2 SSTORE POP POP DUP1 SLOAD PUSH1 0x64 SWAP1 PUSH2 0x9FC SWAP1 PUSH1 0x5 SWAP1 PUSH2 0x113B JUMP JUMPDEST GT PUSH2 0xA14 JUMPI DUP1 SLOAD PUSH2 0xA0F SWAP1 PUSH1 0x5 SWAP1 PUSH2 0x113B JUMP JUMPDEST PUSH2 0xA17 JUMP JUMPDEST PUSH1 0x64 JUMPDEST DUP2 SSTORE PUSH2 0xA56 JUMP JUMPDEST PUSH1 0x3 DUP2 ADD DUP1 SLOAD SWAP1 PUSH1 0x0 PUSH2 0xA30 DUP4 PUSH2 0x1122 JUMP JUMPDEST SWAP1 SWAP2 SSTORE POP POP DUP1 SLOAD PUSH1 0xA LT PUSH2 0xA45 JUMPI PUSH1 0x0 PUSH2 0xA53 JUMP JUMPDEST DUP1 SLOAD PUSH2 0xA53 SWAP1 PUSH1 0xA SWAP1 PUSH2 0x1170 JUMP JUMPDEST DUP2 SSTORE JUMPDEST CALLER PUSH1 0x1 PUSH1 0x1 PUSH1 0xA0 SHL SUB AND PUSH32 0x596C3882DEC0C712CD5C2A7B658E91D8BD3511288A7E4D094EE1231D6FB1C046 DUP5 DUP5 PUSH1 0x40 MLOAD PUSH2 0xA91 SWAP3 SWAP2 SWAP1 PUSH2 0x1183 JUMP JUMPDEST PUSH1 0x40 MLOAD DUP1 SWAP2 SUB SWAP1 LOG2 DUP1 SLOAD PUSH1 0x2 DUP3 ADD SLOAD PUSH1 0x3 DUP4 ADD SLOAD PUSH1 0x40 DUP1 MLOAD SWAP4 DUP5 MSTORE PUSH1 0x20 DUP5 ADD SWAP3 SWAP1 SWAP3 MSTORE SWAP1 DUP3 ADD MSTORE CALLER SWAP1 PUSH32 0xC2FD17AD7E9F23B8607F0BD02D7A6CDCCCD5A964FA99CE5A066ED34C5B4BB55B SWAP1 PUSH1 0x60 ADD PUSH1 0x40 MLOAD DUP1 SWAP2 SUB SWAP1 LOG2 POP POP POP JUMP JUMPDEST PUSH1 0x1 PUSH1 0x1 PUSH1 0xA0 SHL SUB DUP2 AND PUSH1 0x0 SWAP1 DUP2 MSTORE PUSH1 0x1 PUSH1 0x20 MSTORE PUSH1 0x40 DUP2 KECCAK256 PUSH1 0x6 DUP2 ADD SLOAD DUP3 SWAP2 DUP3 SWAP2 DUP3 SWAP2 SWAP1 PUSH1 0xFF AND PUSH2 0xB1E JUMPI PUSH1 0x32 PUSH2 0xB21 JUMP JUMPDEST DUP1 SLOAD JUMPDEST DUP2 PUSH1 0x1 ADD SLOAD DUP3 PUSH1 0x2 ADD SLOAD DUP4 PUSH1 0x3 ADD SLOAD SWAP5 POP SWAP5 POP SWAP5 POP SWAP5 POP POP SWAP2 SWAP4 POP SWAP2 SWAP4 JUMP JUMPDEST PUSH1 0x1 PUSH1 0x1 PUSH1 0xA0 SHL SUB DUP2 AND PUSH1 0x0 SWAP1 DUP2 MSTORE PUSH1 0x1 PUSH1 0x20 MSTORE PUSH1 0x40 DUP2 KECCAK256 PUSH1 0x3 DUP2 ADD SLOAD PUSH1 0x2 DUP3 ADD SLOAD DUP4 SWAP2 PUSH2 0xB6D SWAP2 PUSH2 0x113B JUMP JUMPDEST SWAP1 POP DUP1 PUSH1 0x0 SUB PUSH2 0xB81 JUMPI POP PUSH1 0x0 SWAP4 SWAP3 POP POP POP JUMP JUMPDEST DUP1 DUP3 PUSH1 0x2 ADD SLOAD PUSH1 0x64 PUSH2 0xB93 SWAP2 SWAP1 PUSH2 0x11A7 JUMP JUMPDEST PUSH2 0xB9D SWAP2 SWAP1 PUSH2 0x11BE JUMP JUMPDEST SWAP5 SWAP4 POP POP POP POP JUMP JUMPDEST PUSH1 0x1 PUSH1 0x1 PUSH1 0xA0 SHL SUB DUP2 AND PUSH1 0x0 SWAP1 DUP2 MSTORE PUSH1 0x1 PUSH1 0x20 DUP2 SWAP1 MSTORE PUSH1 0x40 DUP3 KECCAK256 SWAP1 DUP2 ADD SLOAD DUP3 SUB PUSH2 0xBD2 JUMPI POP PUSH1 0x0 SWAP3 SWAP2 POP POP JUMP JUMPDEST DUP1 PUSH1 0x1 ADD SLOAD DUP2 PUSH1 0x4 ADD SLOAD PUSH2 0xBE6 SWAP2 SWAP1 PUSH2 0x11BE JUMP JUMPDEST SWAP4 SWAP3 POP POP POP JUMP JUMPDEST PUSH2 0xBF5 PUSH2 0xC2B JUMP JUMPDEST PUSH1 0x1 PUSH1 0x1 PUSH1 0xA0 SHL SUB DUP2 AND PUSH2 0xC1F JUMPI PUSH1 0x40 MLOAD PUSH4 0x1E4FBDF7 PUSH1 0xE0 SHL DUP2 MSTORE PUSH1 0x0 PUSH1 0x4 DUP3 ADD MSTORE PUSH1 0x24 ADD PUSH2 0x4FD JUMP JUMPDEST PUSH2 0xC28 DUP2 PUSH2 0xC58 JUMP JUMPDEST POP JUMP JUMPDEST PUSH1 0x0 SLOAD PUSH1 0x1 PUSH1 0x1 PUSH1 0xA0 SHL SUB AND CALLER EQ PUSH2 0x956 JUMPI PUSH1 0x40 MLOAD PUSH4 0x118CDAA7 PUSH1 0xE0 SHL DUP2 MSTORE CALLER PUSH1 0x4 DUP3 ADD MSTORE PUSH1 0x24 ADD PUSH2 0x4FD JUMP JUMPDEST PUSH1 0x0 DUP1 SLOAD PUSH1 0x1 PUSH1 0x1 PUSH1 0xA0 SHL SUB DUP4 DUP2 AND PUSH1 0x1 PUSH1 0x1 PUSH1 0xA0 SHL SUB NOT DUP4 AND DUP2 OR DUP5 SSTORE PUSH1 0x40 MLOAD SWAP2 SWAP1 SWAP3 AND SWAP3 DUP4 SWAP2 PUSH32 0x8BE0079C531659141344CD1FD0A4F28419497F9722A3DAAFE3B4186F6B6457E0 SWAP2 SWAP1 LOG3 POP POP JUMP JUMPDEST DUP1 CALLDATALOAD PUSH1 0x1 PUSH1 0x1 PUSH1 0xA0 SHL SUB DUP2 AND DUP2 EQ PUSH2 0xCBF JUMPI PUSH1 0x0 DUP1 REVERT JUMPDEST SWAP2 SWAP1 POP JUMP JUMPDEST PUSH1 0x0 PUSH1 0x20 DUP3 DUP5 SUB SLT ISZERO PUSH2 0xCD6 JUMPI PUSH1 0x0 DUP1 REVERT JUMPDEST PUSH2 0xBE6 DUP3 PUSH2 0xCA8 JUMP JUMPDEST PUSH1 0x0 DUP1 PUSH1 0x40 DUP4 DUP6 SUB SLT ISZERO PUSH2 0xCF2 JUMPI PUSH1 0x0 DUP1 REVERT JUMPDEST PUSH2 0xCFB DUP4 PUSH2 0xCA8 JUMP JUMPDEST SWAP5 PUSH1 0x20 SWAP4 SWAP1 SWAP4 ADD CALLDATALOAD SWAP4 POP POP POP JUMP JUMPDEST PUSH1 0x0 JUMPDEST DUP4 DUP2 LT ISZERO PUSH2 0xD24 JUMPI DUP2 DUP2 ADD MLOAD DUP4 DUP3 ADD MSTORE PUSH1 0x20 ADD PUSH2 0xD0C JUMP JUMPDEST POP POP PUSH1 0x0 SWAP2 ADD MSTORE JUMP JUMPDEST PUSH1 0x0 DUP2 MLOAD DUP1 DUP5 MSTORE PUSH2 0xD45 DUP2 PUSH1 0x20 DUP7 ADD PUSH1 0x20 DUP7 ADD PUSH2 0xD09 JUMP JUMPDEST PUSH1 0x1F ADD PUSH1 0x1F NOT AND SWAP3 SWAP1 SWAP3 ADD PUSH1 0x20 ADD SWAP3 SWAP2 POP POP JUMP JUMPDEST PUSH1 0x1 PUSH1 0x1 PUSH1 0xA0 SHL SUB DUP7 AND DUP2 MSTORE PUSH1 0xFF DUP6 AND PUSH1 0x20 DUP3 ADD MSTORE PUSH1 0xA0 PUSH1 0x40 DUP3 ADD DUP2 SWAP1 MSTORE PUSH1 0x0 SWAP1 PUSH2 0xD86 SWAP1 DUP4 ADD DUP7 PUSH2 0xD2D JUMP JUMPDEST PUSH1 0x60 DUP4 ADD SWAP5 SWAP1 SWAP5 MSTORE POP SWAP1 ISZERO ISZERO PUSH1 0x80 SWAP1 SWAP2 ADD MSTORE SWAP4 SWAP3 POP POP POP JUMP JUMPDEST PUSH1 0x1 PUSH1 0x1 PUSH1 0xA0 SHL SUB DUP6 AND DUP2 MSTORE PUSH1 0xFF DUP5 AND PUSH1 0x20 DUP3 ADD MSTORE PUSH1 0x80 PUSH1 0x40 DUP3 ADD DUP2 SWAP1 MSTORE PUSH1 0x0 SWAP1 PUSH2 0xDCC SWAP1 DUP4 ADD DUP6 PUSH2 0xD2D JUMP JUMPDEST SWAP1 POP DUP3 PUSH1 0x60 DUP4 ADD MSTORE SWAP6 SWAP5 POP POP POP POP POP JUMP JUMPDEST PUSH4 0x4E487B71 PUSH1 0xE0 SHL PUSH1 0x0 MSTORE PUSH1 0x41 PUSH1 0x4 MSTORE PUSH1 0x24 PUSH1 0x0 REVERT JUMPDEST PUSH1 0x0 DUP3 PUSH1 0x1F DUP4 ADD SLT PUSH2 0xE04 JUMPI PUSH1 0x0 DUP1 REVERT JUMPDEST DUP2 CALLDATALOAD PUSH8 0xFFFFFFFFFFFFFFFF DUP1 DUP3 GT ISZERO PUSH2 0xE1F JUMPI PUSH2 0xE1F PUSH2 0xDDD JUMP JUMPDEST PUSH1 0x40 MLOAD PUSH1 0x1F DUP4 ADD PUSH1 0x1F NOT SWAP1 DUP2 AND PUSH1 0x3F ADD AND DUP2 ADD SWAP1 DUP3 DUP3 GT DUP2 DUP4 LT OR ISZERO PUSH2 0xE47 JUMPI PUSH2 0xE47 PUSH2 0xDDD JUMP JUMPDEST DUP2 PUSH1 0x40 MSTORE DUP4 DUP2 MSTORE DUP7 PUSH1 0x20 DUP6 DUP9 ADD ADD GT ISZERO PUSH2 0xE60 JUMPI PUSH1 0x0 DUP1 REVERT JUMPDEST DUP4 PUSH1 0x20 DUP8 ADD PUSH1 0x20 DUP4 ADD CALLDATACOPY PUSH1 0x0 PUSH1 0x20 DUP6 DUP4 ADD ADD MSTORE DUP1 SWAP5 POP POP POP POP POP SWAP3 SWAP2 POP POP JUMP JUMPDEST PUSH1 0x0 DUP1 PUSH1 0x0 DUP1 PUSH1 0x80 DUP6 DUP8 SUB SLT ISZERO PUSH2 0xE96 JUMPI PUSH1 0x0 DUP1 REVERT JUMPDEST PUSH2 0xE9F DUP6 PUSH2 0xCA8 JUMP JUMPDEST SWAP4 POP PUSH1 0x20 DUP6 ADD CALLDATALOAD PUSH1 0xFF DUP2 AND DUP2 EQ PUSH2 0xEB5 JUMPI PUSH1 0x0 DUP1 REVERT JUMPDEST SWAP3 POP PUSH1 0x40 DUP6 ADD CALLDATALOAD PUSH8 0xFFFFFFFFFFFFFFFF DUP1 DUP3 GT ISZERO PUSH2 0xED2 JUMPI PUSH1 0x0 DUP1 REVERT JUMPDEST PUSH2 0xEDE DUP9 DUP4 DUP10 ADD PUSH2 0xDF3 JUMP JUMPDEST SWAP4 POP PUSH1 0x60 DUP8 ADD CALLDATALOAD SWAP2 POP DUP1 DUP3 GT ISZERO PUSH2 0xEF4 JUMPI PUSH1 0x0 DUP1 REVERT JUMPDEST POP PUSH2 0xF01 DUP8 DUP3 DUP9 ADD PUSH2 0xDF3 JUMP JUMPDEST SWAP2 POP POP SWAP3 SWAP6 SWAP2 SWAP5 POP SWAP3 POP JUMP JUMPDEST PUSH1 0x0 DUP1 PUSH1 0x40 DUP4 DUP6 SUB SLT ISZERO PUSH2 0xF20 JUMPI PUSH1 0x0 DUP1 REVERT JUMPDEST DUP3 CALLDATALOAD PUSH8 0xFFFFFFFFFFFFFFFF DUP2 GT ISZERO PUSH2 0xF37 JUMPI PUSH1 0x0 DUP1 REVERT JUMPDEST PUSH2 0xF43 DUP6 DUP3 DUP7 ADD PUSH2 0xDF3 JUMP JUMPDEST SWAP3 POP POP PUSH1 0x20 DUP4 ADD CALLDATALOAD DUP1 ISZERO ISZERO DUP2 EQ PUSH2 0xF59 JUMPI PUSH1 0x0 DUP1 REVERT JUMPDEST DUP1 SWAP2 POP POP SWAP3 POP SWAP3 SWAP1 POP JUMP JUMPDEST PUSH1 0x0 PUSH1 0x20 DUP3 DUP5 SUB SLT ISZERO PUSH2 0xF76 JUMPI PUSH1 0x0 DUP1 REVERT JUMPDEST POP CALLDATALOAD SWAP2 SWAP1 POP JUMP JUMPDEST PUSH1 0x1 DUP2 DUP2 SHR SWAP1 DUP3 AND DUP1 PUSH2 0xF91 JUMPI PUSH1 0x7F DUP3 AND SWAP2 POP JUMPDEST PUSH1 0x20 DUP3 LT DUP2 SUB PUSH2 0xFB1 JUMPI PUSH4 0x4E487B71 PUSH1 0xE0 SHL PUSH1 0x0 MSTORE PUSH1 0x22 PUSH1 0x4 MSTORE PUSH1 0x24 PUSH1 0x0 REVERT JUMPDEST POP SWAP2 SWAP1 POP JUMP JUMPDEST PUSH1 0x0 PUSH12 0xFFFFFFFFFFFFFFFFFFFFFFFF NOT DUP1 DUP7 PUSH1 0x60 SHL AND DUP4 MSTORE DUP1 DUP6 PUSH1 0x60 SHL AND PUSH1 0x14 DUP5 ADD MSTORE POP DUP3 MLOAD PUSH2 0xFEE DUP2 PUSH1 0x28 DUP6 ADD PUSH1 0x20 DUP8 ADD PUSH2 0xD09 JUMP JUMPDEST SWAP2 SWAP1 SWAP2 ADD PUSH1 0x28 ADD SWAP5 SWAP4 POP POP POP POP JUMP JUMPDEST PUSH1 0x1F DUP3 GT ISZERO PUSH2 0x1047 JUMPI PUSH1 0x0 DUP2 DUP2 MSTORE PUSH1 0x20 DUP2 KECCAK256 PUSH1 0x1F DUP6 ADD PUSH1 0x5 SHR DUP2 ADD PUSH1 0x20 DUP7 LT ISZERO PUSH2 0x1024 JUMPI POP DUP1 JUMPDEST PUSH1 0x1F DUP6 ADD PUSH1 0x5 SHR DUP3 ADD SWAP2 POP JUMPDEST DUP2 DUP2 LT ISZERO PUSH2 0x1043 JUMPI DUP3 DUP2 SSTORE PUSH1 0x1 ADD PUSH2 0x1030 JUMP JUMPDEST POP POP POP JUMPDEST POP POP POP JUMP JUMPDEST DUP2 MLOAD PUSH8 0xFFFFFFFFFFFFFFFF DUP2 GT ISZERO PUSH2 0x1066 JUMPI PUSH2 0x1066 PUSH2 0xDDD JUMP JUMPDEST PUSH2 0x107A DUP2 PUSH2 0x1074 DUP5 SLOAD PUSH2 0xF7D JUMP JUMPDEST DUP5 PUSH2 0xFFD JUMP JUMPDEST PUSH1 0x20 DUP1 PUSH1 0x1F DUP4 GT PUSH1 0x1 DUP2 EQ PUSH2 0x10AF JUMPI PUSH1 0x0 DUP5 ISZERO PUSH2 0x1097 JUMPI POP DUP6 DUP4 ADD MLOAD JUMPDEST PUSH1 0x0 NOT PUSH1 0x3 DUP7 SWAP1 SHL SHR NOT AND PUSH1 0x1 DUP6 SWAP1 SHL OR DUP6 SSTORE PUSH2 0x1043 JUMP JUMPDEST PUSH1 0x0 DUP6 DUP2 MSTORE PUSH1 0x20 DUP2 KECCAK256 PUSH1 0x1F NOT DUP7 AND SWAP2 JUMPDEST DUP3 DUP2 LT ISZERO PUSH2 0x10DE JUMPI DUP9 DUP7 ADD MLOAD DUP3 SSTORE SWAP5 DUP5 ADD SWAP5 PUSH1 0x1 SWAP1 SWAP2 ADD SWAP1 DUP5 ADD PUSH2 0x10BF JUMP JUMPDEST POP DUP6 DUP3 LT ISZERO PUSH2 0x10FC JUMPI DUP8 DUP6 ADD MLOAD PUSH1 0x0 NOT PUSH1 0x3 DUP9 SWAP1 SHL PUSH1 0xF8 AND SHR NOT AND DUP2 SSTORE JUMPDEST POP POP POP POP POP PUSH1 0x1 SWAP1 DUP2 SHL ADD SWAP1 SSTORE POP JUMP JUMPDEST PUSH4 0x4E487B71 PUSH1 0xE0 SHL PUSH1 0x0 MSTORE PUSH1 0x11 PUSH1 0x4 MSTORE PUSH1 0x24 PUSH1 0x0 REVERT JUMPDEST PUSH1 0x0 PUSH1 0x1 DUP3 ADD PUSH2 0x1134 JUMPI PUSH2 0x1134 PUSH2 0x110C JUMP JUMPDEST POP PUSH1 0x1 ADD SWAP1 JUMP JUMPDEST DUP1 DUP3 ADD DUP1 DUP3 GT ISZERO PUSH2 0x114E JUMPI PUSH2 0x114E PUSH2 0x110C JUMP JUMPDEST SWAP3 SWAP2 POP POP JUMP JUMPDEST PUSH1 0xFF DUP4 AND DUP2 MSTORE PUSH1 0x40 PUSH1 0x20 DUP3 ADD MSTORE PUSH1 0x0 PUSH2 0xB9D PUSH1 0x40 DUP4 ADD DUP5 PUSH2 0xD2D JUMP JUMPDEST DUP2 DUP2 SUB DUP2 DUP2 GT ISZERO PUSH2 0x114E JUMPI PUSH2 0x114E PUSH2 0x110C JUMP JUMPDEST PUSH1 0x40 DUP2 MSTORE PUSH1 0x0 PUSH2 0x1196 PUSH1 0x40 DUP4 ADD DUP6 PUSH2 0xD2D JUMP JUMPDEST SWAP1 POP DUP3 ISZERO ISZERO PUSH1 0x20 DUP4 ADD MSTORE SWAP4 SWAP3 POP POP POP JUMP JUMPDEST DUP1 DUP3 MUL DUP2 ISZERO DUP3 DUP3 DIV DUP5 EQ OR PUSH2 0x114E JUMPI PUSH2 0x114E PUSH2 0x110C JUMP JUMPDEST PUSH1 0x0 DUP3 PUSH2 0x11DB JUMPI PUSH4 0x4E487B71 PUSH1 0xE0 SHL PUSH1 0x0 MSTORE PUSH1 0x12 PUSH1 0x4 MSTORE PUSH1 0x24 PUSH1 0x0 REVERT JUMPDEST POP DIV SWAP1 JUMP INVALID LOG2 PUSH5 0x6970667358 0x22 SLT KECCAK256 KECCAK256 0x2F 0xE0 PUSH0 0xE2 PUSH32 0x161C33AA6405E6A086C9485FD25C92AF3204B5CCFBCF26B2A1F564736F6C6343 STOP ADDMOD EQ STOP CALLER "},"methodIdentifiers":{"MAX_RATING()":"94e113ea","MAX_SCORE()":"27ff6223","MIN_RATING()":"bb0e4ea2","MIN_SCORE()":"40b89270","SCORE_DECREMENT()":"424017aa","SCORE_INCREMENT()":"c33d28e1","creatorExists(address)":"115a460f","creatorReputations(address)":"6289b608","emergencyResetReputation(address)":"64555881","getAverageRating(address)":"c8b67522","getCompletionRate(address)":"a3c28ba6","getRating(address,uint256)":"3dbeacbf","getRatingCount(address)":"ecdb1235","getReputation(address)":"9c89a0e2","hasRated(bytes32)":"8253b9ec","owner()":"8da5cb5b","ratings(address,uint256)":"2a0e54bd","renounceOwnership()":"715018a6","submitRating(address,uint8,string,string)":"472a65d4","transferOwnership(address)":"f2fde38b","updateRequestStatus(string,bool)":"74a99aec"}}}}}