{
  "_format": "hh-sol-artifact-1",
  "contractName": "ReputationContract",
  "sourceName": "contracts/ReputationContract.sol",
  "abi": [
    {
      "inputs": [],
      "stateMutability": "nonpayable",
      "type": "constructor"
    },
    {
      "inputs": [
        {
          "internalType": "address",
          "name": "owner",
          "type": "address"
        }
      ],
      "name": "OwnableInvalidOwner",
      "type": "error"
    },
    {
      "inputs": [
        {
          "internalType": "address",
          "name": "account",
          "type": "address"
        }
      ],
      "name": "OwnableUnauthorizedAccount",
      "type": "error"
    },
    {
      "anonymous": false,
      "inputs": [
        {
          "indexed": true,
          "internalType": "address",
          "name": "previousOwner",
          "type": "address"
        },
        {
          "indexed": true,
          "internalType": "address",
          "name": "newOwner",
          "type": "address"
        }
      ],
      "name": "OwnershipTransferred",
      "type": "event"
    },
    {
      "anonymous": false,
      "inputs": [
        {
          "indexed": true,
          "internalType": "address",
          "name": "creator",
          "type": "address"
        },
        {
          "indexed": true,
          "internalType": "address",
          "name": "supporter",
          "type": "address"
        },
        {
          "indexed": false,
          "internalType": "uint8",
          "name": "rating",
          "type": "uint8"
        },
        {
          "indexed": false,
          "internalType": "string",
          "name": "comment",
          "type": "string"
        }
      ],
      "name": "RatingSubmitted",
      "type": "event"
    },
    {
      "anonymous": false,
      "inputs": [
        {
          "indexed": true,
          "internalType": "address",
          "name": "creator",
          "type": "address"
        },
        {
          "indexed": false,
          "internalType": "uint256",
          "name": "newScore",
          "type": "uint256"
        },
        {
          "indexed": false,
          "internalType": "uint256",
          "name": "completedRequests",
          "type": "uint256"
        },
        {
          "indexed": false,
          "internalType": "uint256",
          "name": "disputedRequests",
          "type": "uint256"
        }
      ],
      "name": "ReputationUpdated",
      "type": "event"
    },
    {
      "anonymous": false,
      "inputs": [
        {
          "indexed": true,
          "internalType": "address",
          "name": "creator",
          "type": "address"
        },
        {
          "indexed": false,
          "internalType": "string",
          "name": "requestId",
          "type": "string"
        },
        {
          "indexed": false,
          "internalType": "bool",
          "name": "completed",
          "type": "bool"
        }
      ],
      "name": "RequestStatusUpdated",
      "type": "event"
    },
    {
      "inputs": [],
      "name": "MAX_RATING",
      "outputs": [
        {
          "internalType": "uint8",
          "name": "",
          "type": "uint8"
        }
      ],
      "stateMutability": "view",
      "type": "function"
    },
    {
      "inputs": [],
      "name": "MAX_SCORE",
      "outputs": [
        {
          "internalType": "uint256",
          "name": "",
          "type": "uint256"
        }
      ],
      "stateMutability": "view",
      "type": "function"
    },
    {
      "inputs": [],
      "name": "MIN_RATING",
      "outputs": [
        {
          "internalType": "uint8",
          "name": "",
          "type": "uint8"
        }
      ],
      "stateMutability": "view",
      "type": "function"
    },
    {
      "inputs": [],
      "name": "MIN_SCORE",
      "outputs": [
        {
          "internalType": "uint256",
          "name": "",
          "type": "uint256"
        }
      ],
      "stateMutability": "view",
      "type": "function"
    },
    {
      "inputs": [],
      "name": "SCORE_DECREMENT",
      "outputs": [
        {
          "internalType": "uint256",
          "name": "",
          "type": "uint256"
        }
      ],
      "stateMutability": "view",
      "type": "function"
    },
    {
      "inputs": [],
      "name": "SCORE_INCREMENT",
      "outputs": [
        {
          "internalType": "uint256",
          "name": "",
          "type": "uint256"
        }
      ],
      "stateMutability": "view",
      "type": "function"
    },
    {
      "inputs": [
        {
          "internalType": "address",
          "name": "creator",
          "type": "address"
        }
      ],
      "name": "creatorExists",
      "outputs": [
        {
          "internalType": "bool",
          "name": "",
          "type": "bool"
        }
      ],
      "stateMutability": "view",
      "type": "function"
    },
    {
      "inputs": [
        {
          "internalType": "address",
          "name": "",
          "type": "address"
        }
      ],
      "name": "creatorReputations",
      "outputs": [
        {
          "internalType": "uint256",
          "name": "score",
          "type": "uint256"
        },
        {
          "internalType": "uint256",
          "name": "totalRatings",
          "type": "uint256"
        },
        {
          "internalType": "uint256",
          "name": "completedRequests",
          "type": "uint256"
        },
        {
          "internalType": "uint256",
          "name": "disputedRequests",
          "type": "uint256"
        },
        {
          "internalType": "uint256",
          "name": "totalRatingSum",
          "type": "uint256"
        },
        {
          "internalType": "uint256",
          "name": "ratingCount",
          "type": "uint256"
        },
        {
          "internalType": "bool",
          "name": "exists",
          "type": "bool"
        }
      ],
      "stateMutability": "view",
      "type": "function"
    },
    {
      "inputs": [
        {
          "internalType": "address",
          "name": "creator",
          "type": "address"
        }
      ],
      "name": "emergencyResetReputation",
      "outputs": [],
      "stateMutability": "nonpayable",
      "type": "function"
    },
    {
      "inputs": [
        {
          "internalType": "address",
          "name": "creator",
          "type": "address"
        }
      ],
      "name": "getAverageRating",
      "outputs": [
        {
          "internalType": "uint256",
          "name": "",
          "type": "uint256"
        }
      ],
      "stateMutability": "view",
      "type": "function"
    },
    {
      "inputs": [
        {
          "internalType": "address",
          "name": "creator",
          "type": "address"
        }
      ],
      "name": "getCompletionRate",
      "outputs": [
        {
          "internalType": "uint256",
          "name": "",
          "type": "uint256"
        }
      ],
      "stateMutability": "view",
      "type": "function"
    },
    {
      "inputs": [
        {
          "internalType": "address",
          "name": "creator",
          "type": "address"
        },
        {
          "internalType": "uint256",
          "name": "ratingId",
          "type": "uint256"
        }
      ],
      "name": "getRating",
      "outputs": [
        {
          "internalType": "address",
          "name": "supporter",
          "type": "address"
        },
        {
          "internalType": "uint8",
          "name": "rating",
          "type": "uint8"
        },
        {
          "internalType": "string",
          "name": "comment",
          "type": "string"
        },
        {
          "internalType": "uint256",
          "name": "timestamp",
          "type": "uint256"
        }
      ],
      "stateMutability": "view",
      "type": "function"
    },
    {
      "inputs": [
        {
          "internalType": "address",
          "name": "creator",
          "type": "address"
        }
      ],
      "name": "getRatingCount",
      "outputs": [
        {
          "internalType": "uint256",
          "name": "",
          "type": "uint256"
        }
      ],
      "stateMutability": "view",
      "type": "function"
    },
    {
      "inputs": [
        {
          "internalType": "address",
          "name": "creator",
          "type": "address"
        }
      ],
      "name": "getReputation",
      "outputs": [
        {
          "internalType": "uint256",
          "name": "score",
          "type": "uint256"
        },
        {
          "internalType": "uint256",
          "name": "totalRatings",
          "type": "uint256"
        },
        {
          "internalType": "uint256",
          "name": "completedRequests",
          "type": "uint256"
        },
        {
          "internalType": "uint256",
          "name": "disputedRequests",
          "type": "uint256"
        }
      ],
      "stateMutability": "view",
      "type": "function"
    },
    {
      "inputs": [
        {
          "internalType": "bytes32",
          "name": "",
          "type": "bytes32"
        }
      ],
      "name": "hasRated",
      "outputs": [
        {
          "internalType": "bool",
          "name": "",
          "type": "bool"
        }
      ],
      "stateMutability": "view",
      "type": "function"
    },
    {
      "inputs": [],
      "name": "owner",
      "outputs": [
        {
          "internalType": "address",
          "name": "",
          "type": "address"
        }
      ],
      "stateMutability": "view",
      "type": "function"
    },
    {
      "inputs": [
        {
          "internalType": "address",
          "name": "",
          "type": "address"
        },
        {
          "internalType": "uint256",
          "name": "",
          "type": "uint256"
        }
      ],
      "name": "ratings",
      "outputs": [
        {
          "internalType": "address",
          "name": "supporter",
          "type": "address"
        },
        {
          "internalType": "uint8",
          "name": "rating",
          "type": "uint8"
        },
        {
          "internalType": "string",
          "name": "comment",
          "type": "string"
        },
        {
          "internalType": "uint256",
          "name": "timestamp",
          "type": "uint256"
        },
        {
          "internalType": "bool",
          "name": "exists",
          "type": "bool"
        }
      ],
      "stateMutability": "view",
      "type": "function"
    },
    {
      "inputs": [],
      "name": "renounceOwnership",
      "outputs": [],
      "stateMutability": "nonpayable",
      "type": "function"
    },
    {
      "inputs": [
        {
          "internalType": "address",
          "name": "creator",
          "type": "address"
        },
        {
          "internalType": "uint8",
          "name": "rating",
          "type": "uint8"
        },
        {
          "internalType": "string",
          "name": "comment",
          "type": "string"
        },
        {
          "internalType": "string",
          "name": "requestId",
          "type": "string"
        }
      ],
      "name": "submitRating",
      "outputs": [],
      "stateMutability": "nonpayable",
      "type": "function"
    },
    {
      "inputs": [
        {
          "internalType": "address",
          "name": "newOwner",
          "type": "address"
        }
      ],
      "name": "transferOwnership",
      "outputs": [],
      "stateMutability": "nonpayable",
      "type": "function"
    },
    {
      "inputs": [
        {
          "internalType": "address",
          "name": "creator",
          "type": "address"
        },
        {
          "internalType": "string",
          "name": "requestId",
          "type": "string"
        },
        {
          "internalType": "bool",
          "name": "completed",
          "type": "bool"
        }
      ],
      "name": "updateRequestStatus",
      "outputs": [],
      "stateMutability": "nonpayable",
      "type": "function"
    }
  ],
  "bytecode": "0x608060405234801561001057600080fd5b50338061003757604051631e4fbdf760e01b81526000600482015260240160405180910390fd5b61004081610046565b50610096565b600080546001600160a01b038381166001600160a01b0319831681178455604051919092169283917f8be0079c531659141344cd1fd0a4f28419497f9722a3daafe3b4186f6b6457e09190a35050565b611242806100a56000396000f3fe608060405234801561001057600080fd5b50600436106101375760003560e01c80638253b9ec116100b8578063b9a2f4c11161007c578063b9a2f4c11461033f578063bb0e4ea214610352578063c33d28e11461035a578063c8b6752214610362578063ecdb123514610375578063f2fde38b146103a157600080fd5b80638253b9ec146102a15780638da5cb5b146102c457806394e113ea146102df5780639c89a0e2146102f9578063a3c28ba61461032c57600080fd5b8063424017aa116100ff578063424017aa146101e5578063472a65d4146101ed5780636289b608146102025780636455588114610286578063715018a61461029957600080fd5b8063115a460f1461013c57806327ff6223146101805780632a0e54bd146101965780633dbeacbf146101ba57806340b89270146101dd575b600080fd5b61016b61014a366004610ce0565b6001600160a01b031660009081526001602052604090206006015460ff1690565b60405190151581526020015b60405180910390f35b610188606481565b604051908152602001610177565b6101a96101a4366004610cfb565b6103b4565b604051610177959493929190610d75565b6101cd6101c8366004610cfb565b61048a565b6040516101779493929190610dbb565b610188600081565b610188600a81565b6102006101fb366004610e9c565b6105c7565b005b61024f610210366004610ce0565b60016020819052600091825260409091208054918101546002820154600383015460048401546005850154600690950154939492939192909160ff1687565b604080519788526020880196909652948601939093526060850191909152608084015260a0830152151560c082015260e001610177565b610200610294366004610ce0565b6108f0565b610200610944565b61016b6102af366004610f29565b60036020526000908152604090205460ff1681565b6000546040516001600160a01b039091168152602001610177565b6102e7600581565b60405160ff9091168152602001610177565b61030c610307366004610ce0565b610958565b604080519485526020850193909352918301526060820152608001610177565b61018861033a366004610ce0565b6109ac565b61020061034d366004610f42565b610a11565b6102e7600181565b610188600581565b610188610370366004610ce0565b610bc1565b610188610383366004610ce0565b6001600160a01b031660009081526001602052604090206005015490565b6102006103af366004610ce0565b610c09565b6002602090815260009283526040808420909152908252902080546001820180546001600160a01b03831693600160a01b90930460ff169291906103f790610fa9565b80601f016020809104026020016040519081016040528092919081815260200182805461042390610fa9565b80156104705780601f1061044557610100808354040283529160200191610470565b820191906000526020600020905b81548152906001019060200180831161045357829003601f168201915b50505050600283015460039093015491929160ff16905085565b6001600160a01b038216600090815260026020908152604080832084845290915281206003810154829160609183919060ff166105065760405162461bcd60e51b815260206004820152601560248201527414985d1a5b99c8191bd95cc81b9bdd08195e1a5cdd605a1b60448201526064015b60405180910390fd5b805460028201546001830180546001600160a01b03841693600160a01b900460ff169290829061053590610fa9565b80601f016020809104026020016040519081016040528092919081815260200182805461056190610fa9565b80156105ae5780601f10610583576101008083540402835291602001916105ae565b820191906000526020600020905b81548152906001019060200180831161059157829003601f168201915b5050505050915094509450945094505092959194509250565b6001600160a01b0384166106175760405162461bcd60e51b8152602060048201526017602482015276496e76616c69642063726561746f72206164647265737360481b60448201526064016104fd565b600160ff84161080159061062f5750600560ff841611155b61067b5760405162461bcd60e51b815260206004820152601e60248201527f526174696e67206d757374206265206265747765656e203120616e642035000060448201526064016104fd565b6101f4825111156106c15760405162461bcd60e51b815260206004820152601060248201526f436f6d6d656e7420746f6f206c6f6e6760801b60448201526064016104fd565b60008433836040516020016106d893929190610fe3565b60408051601f1981840301815291815281516020928301206000818152600390935291205490915060ff16156107505760405162461bcd60e51b815260206004820152601a60248201527f416c72656164792072617465642074686973207265717565737400000000000060448201526064016104fd565b6000818152600360209081526040808320805460ff191660019081179091556001600160a01b03891684529091529020600681015460ff166107a0576032815560068101805460ff191660011790555b60058101546040805160a08101825233815260ff80891660208084019182528385018a81524260608601526001608086018190526001600160a01b038e81166000908152600285528881208a825290945296909220855181549451909516600160a01b026001600160a81b031990941694909616939093179190911784559051919291908201906108319082611078565b50606082015160028201556080909101516003909101805460ff19169115159190911790556005820180549060006108688361114e565b909155505060018201805490600061087f8361114e565b91905055508560ff1682600401600082825461089b9190611167565b909155505060405133906001600160a01b038916907f0e3f87f0b7198277871062987aa8b26c5863a00b6f8e463d224b951be69a6ffb906108df908a908a90611180565b60405180910390a350505050505050565b6108f8610c47565b6001600160a01b0316600090815260016020819052604082208281559081018290556002810182905560038101829055600481018290556005810191909155600601805460ff19169055565b61094c610c47565b6109566000610c74565b565b6001600160a01b038116600090815260016020526040812060068101548291829182919060ff1661098a57603261098d565b80545b8160010154826002015483600301549450945094509450509193509193565b6001600160a01b03811660009081526001602052604081206003810154600282015483916109d991611167565b9050806000036109ed575060009392505050565b80826002015460646109ff919061119c565b610a0991906111b3565b949350505050565b6001600160a01b038316610a615760405162461bcd60e51b8152602060048201526017602482015276496e76616c69642063726561746f72206164647265737360481b60448201526064016104fd565b6001600160a01b0383166000908152600160205260409020600681015460ff16610a99576032815560068101805460ff191660011790555b8115610ae957600281018054906000610ab18361114e565b90915550508054606490610ac790600590611167565b11610adf578054610ada90600590611167565b610ae2565b60645b8155610b21565b600381018054906000610afb8361114e565b90915550508054600a10610b10576000610b1e565b8054610b1e90600a906111d5565b81555b836001600160a01b03167f596c3882dec0c712cd5c2a7b658e91d8bd3511288a7e4d094ee1231d6fb1c0468484604051610b5c9291906111e8565b60405180910390a2805460028201546003830154604080519384526020840192909252908201526001600160a01b038516907fc2fd17ad7e9f23b8607f0bd02d7a6cdcccd5a964fa99ce5a066ed34c5b4bb55b9060600160405180910390a250505050565b6001600160a01b03811660009081526001602081905260408220908101548203610bee5750600092915050565b80600101548160040154610c0291906111b3565b9392505050565b610c11610c47565b6001600160a01b038116610c3b57604051631e4fbdf760e01b8152600060048201526024016104fd565b610c4481610c74565b50565b6000546001600160a01b031633146109565760405163118cdaa760e01b81523360048201526024016104fd565b600080546001600160a01b038381166001600160a01b0319831681178455604051919092169283917f8be0079c531659141344cd1fd0a4f28419497f9722a3daafe3b4186f6b6457e09190a35050565b80356001600160a01b0381168114610cdb57600080fd5b919050565b600060208284031215610cf257600080fd5b610c0282610cc4565b60008060408385031215610d0e57600080fd5b610d1783610cc4565b946020939093013593505050565b60005b83811015610d40578181015183820152602001610d28565b50506000910152565b60008151808452610d61816020860160208601610d25565b601f01601f19169290920160200192915050565b6001600160a01b038616815260ff8516602082015260a060408201819052600090610da290830186610d49565b6060830194909452509015156080909101529392505050565b6001600160a01b038516815260ff84166020820152608060408201819052600090610de890830185610d49565b905082606083015295945050505050565b634e487b7160e01b600052604160045260246000fd5b600082601f830112610e2057600080fd5b813567ffffffffffffffff80821115610e3b57610e3b610df9565b604051601f8301601f19908116603f01168101908282118183101715610e6357610e63610df9565b81604052838152866020858801011115610e7c57600080fd5b836020870160208301376000602085830101528094505050505092915050565b60008060008060808587031215610eb257600080fd5b610ebb85610cc4565b9350602085013560ff81168114610ed157600080fd5b9250604085013567ffffffffffffffff80821115610eee57600080fd5b610efa88838901610e0f565b93506060870135915080821115610f1057600080fd5b50610f1d87828801610e0f565b91505092959194509250565b600060208284031215610f3b57600080fd5b5035919050565b600080600060608486031215610f5757600080fd5b610f6084610cc4565b9250602084013567ffffffffffffffff811115610f7c57600080fd5b610f8886828701610e0f565b92505060408401358015158114610f9e57600080fd5b809150509250925092565b600181811c90821680610fbd57607f821691505b602082108103610fdd57634e487b7160e01b600052602260045260246000fd5b50919050565b60006bffffffffffffffffffffffff19808660601b168352808560601b16601484015250825161101a816028850160208701610d25565b91909101602801949350505050565b601f82111561107357600081815260208120601f850160051c810160208610156110505750805b601f850160051c820191505b8181101561106f5782815560010161105c565b5050505b505050565b815167ffffffffffffffff81111561109257611092610df9565b6110a6816110a08454610fa9565b84611029565b602080601f8311600181146110db57600084156110c35750858301515b600019600386901b1c1916600185901b17855561106f565b600085815260208120601f198616915b8281101561110a578886015182559484019460019091019084016110eb565b50858210156111285787850151600019600388901b60f8161c191681555b5050505050600190811b01905550565b634e487b7160e01b600052601160045260246000fd5b60006001820161116057611160611138565b5060010190565b8082018082111561117a5761117a611138565b92915050565b60ff83168152604060208201526000610a096040830184610d49565b808202811582820484141761117a5761117a611138565b6000826111d057634e487b7160e01b600052601260045260246000fd5b500490565b8181038181111561117a5761117a611138565b6040815260006111fb6040830185610d49565b90508215156020830152939250505056fea26469706673582212203894ebb71e7ca88bdd704f71373ad9a5d9cf3ce472092ea9fc59090d64eed4ce64736f6c63430008140033",
  "linkReferences": {},
  "deployedLinkReferences": {}
}